:1010000080320020F54200004FA60000E1420000BF
:10101000E1420000E1420000E14200000000000067
:10102000000000000000000000000000514400002B
:10103000E142000000000000FD430000E14200002A
:10104000F9450000F9450000F9450000F9450000A8
:10105000F9450000F9450000F9450000F945000098
:10106000F9450000F9450000F9450000F945000088
:10107000F9450000F9450000F9450000F945000078
:10108000F9450000F9450000F9450000F945000068
:10109000F9450000F9450000F9450000F945000058
:1010A000F9450000F9450000F9450000F945000048
:1010B000F9450000F9450000F9450000F945000038
:1010C000F9450000F9450000F9450000F945000028
:1010D000F9450000F9450000F9450000F945000018
:1010E000F9450000F9450000F9450000F945000008
:1010F000F9450000F9450000F9450000F9450000F8
:1011000053B94AB9002908BF00281CBF4FF0FF316E
:101110004FF0FF3000F00CB8ADF1080C6DE904CED3
:1011200000F008F8DDF804E0DDE9022304B07047C0
:10113000704700BF2DE9F04786468C460846089E5A
:10114000154674461946002B40F0C2808542B2FA1B
:1011500082F245D94AB1C2F1200300FA02FC2EFA0C
:1011600003F3954043EA0C0C94404FEA154EA8B2A5
:10117000BCFBFEF8230C0EFB18CC08FB00F943EA7D
:101180000C43994528D9EB1808F1FF3704D299454B
:1011900002D9A8F102072B44A3EB0903A4B2B3FBC5
:1011A000FEFC0EFB1C330CFB00F044EA0344A0429F
:1011B00014D92C190CF1FF3304D2A04202D9ACF19E
:1011C00002032C44241A43EA07401EB1D4400023F2
:1011D00034607360BDE8F0874746DDE76346F1E7BA
:1011E00092BB431B01214FEA154EAFB2B3FBFEFC8D
:1011F000200C0EFB1C330CFB07F840EA0343984518
:1012000062D9EB180CF1FF3004D2984502D9ACF149
:1012100002002B44A3EB0803A4B2B3FBFEFC0EFBBD
:101220001C330CFB07F744EA0344A7424ED92C19A0
:101230000CF1FF3304D2A74202D9ACF102032C44D3
:10124000E41B43EA0040C0E7C2F1200320FA03F1A7
:10125000954090402EFA03F303434FEA154EAFB288
:10126000B1FBFEFC0EFB1C10190C0CFB07F841EA4D
:101270000041884504FA02F422D969180CF1FF30C4
:1012800004D2884502D9ACF102002944A1EB08013F
:101290009BB2B1FBFEFC0EFB1C110CFB07F743EAF3
:1012A00001439F420ED9EB180CF1FF3104D29F424B
:1012B00002D9ACF102012B44DB1B41EA004192E769
:1012C0006046E3E76146F7E76046A3E76346B7E7B2
:1012D000834206D916B9002108467BE7C6E900E03B
:1012E000F9E7B3FA83F78FB9834201D3724508D87F
:1012F000BEEB020460EB030301209C461EB90021F3
:1013000068E73846FAE7C6E9004CF8E7C7F1200C71
:10131000BB4022FA0CF41C432EFA0CF120FA0CF319
:10132000B84001434FEA14490EFA07F5B3FBF9F848
:101330001FFA84FE09FB18300B0C08FB0EFA43EA77
:1013400000439A4502FA07F240D9E31808F1FF304A
:1013500004D29A4502D9A8F102002344A3EB0A0360
:1013600089B2B3FBF9F809FB183308FB0EFE41EA1A
:1013700003418E452CD9611808F1FF3304D28E4504
:1013800002D9A8F10203214443EA0040A0FB0298DD
:10139000A1EB0E014145CE46434602D306D14D4551
:1013A00004D2B9EB020E68EB04030138002EA6D07C
:1013B000B5EB0E0261EB030101FA0CFC22FA07F314
:1013C0004CEA0303F940C6E9003198E74046C5E717
:1013D0004346D9E70248836840215B69184700BF4C
:1013E00014B600001FB5FFF7F5FF064B029300236C
:1013F000CDE9003304490322184608F0E7FA05B0A6
:101400005DF804FB4CBB0000A8B800007FB5354D6B
:10141000284609F01BFD60B9334B02930023CDE948
:10142000003332490122184608F0D0FA002004B0F7
:1014300070BD2F4809F00AFD0028EDD02D484FF46B
:10144000B01108F0A4FA044630B12B4B039002937C
:101450000023CDE900330BE028484FF4803108F039
:1014600096FA58B1264B0390CDE9014300942346E8
:101470001E490122184608F0A9FAD7E7AC682B6983
:10148000A66986B11B6813F0400F14BF4FF00073BC
:101490004FF080634FF0A07206212846B04728B174
:1014A000184B0390D3E76FF05700F9E71649174B35
:1014B0004B6040238B60E36913B1012228469847B3
:1014C000134B02930023CDE9003308490322184649
:1014D00008F07CFAFFF77EFF00214FF4004009F08E
:1014E0000FFFF7E700B6000086BB0000A8B80000B9
:1014F00014B6000028B900009DBB000030B9000000
:10150000B3BB0000CCBB000068070020E51300005F
:10151000E9BB00002DE9F04F91B08407009302F081
:1015200004030293C2F3C20303F10103DDF86880F0
:10153000039205460E46059340F0BA81041D30B172
:10154000072909D86FF01B0011B0BDE8F08F01F03A
:1015500007063444C6F10806009B4FF00009591EE7
:101560004FF0040A4FF0FF330193CDF810904F462F
:10157000CB4653460DB1009A22600598002800F32F
:10158000E8809848009A824203D397488242C0F08C
:10159000E080039AA4EB050E92074FEA9E0000F14B
:1015A00003810F2F00F2B180002D00F0058107F1BB
:1015B00040020DEB020C019A0CF8200C0CF8102CD8
:1015C000049801300490E7E07A285DD84B280ED8C3
:1015D000472859D829282DD8252852D054D8202832
:1015E0007AD02338D0F1000B4BEB000B74E04C3871
:1015F0002E2849D8DFE800F0704848484848484855
:10160000484848484B484848484848484859484B43
:101610004B595959704B6D487048184B18484882BF
:101620007F4B48484B487F0000204FF0000B4FF0A5
:10163000040A38E02A38C0B2012202FA00F010EAA7
:101640000E0F49D110F0625C2FD110EA020B43D08B
:101650006046013C5444B4FBFAF40AFB04F4002D48
:1016600061D0A3EB050CA444B4453FF66BAF002852
:1016700068D1042B47D158F8043B23600434042379
:101680002AE0019A013A01924FF0000B24E011F890
:10169000010C6C2834D111F8023C00206C2B8346DD
:1016A000C5D14FF0080A5346D3E708F1070828F0E0
:1016B00007080734F8E802AB24F0070435B10698B0
:1016C0002044B0423FF63EAFC4E900AB08344FF0CF
:1016D000000B4FF0080A534611F8010F002878D08C
:1016E000BBF1000F7FF470AF2528F5D1019B0133CA
:1016F00001934FF0010B4FF0040AECE7584694E7D2
:1017000000208346A5E7082B02D06FF015001BE7E9
:1017100008F1070828F00708F8E80223C4E90023C5
:1017200008340823D8E768B9042B02D108F104086B
:10173000A4E7082BE9D108F1070828F0070808F109
:101740000808EDE7059A013A059258F8042B009233
:1017500010E7039A900720D5A4EB050E4FEA9E00F0
:101760004FF0010CBEF5007FCFD20F2FCDD8F5B1D1
:1017700007F140020DEB020EC0B2019A0EF8200CE8
:101780000EF8102CBCF1000F3FF41AAF60F07F0090
:101790000EF8200C09F101090137C5F108020434E3
:1017A00006924FF6DA7E97E74FF0000CDAE7BCF1CD
:1017B000000F01D00136EFE7029802360028EBD186
:1017C0000098CDE9063108F0A0FFDDE906310644B6
:1017D000E2E7631BB3F5806F97D23DB9A6F1080429
:1017E000E018B1E65CB5000038C60000029A286037
:1017F0009B082B709DF81030C2B1EB7085F80290F9
:10180000B9F1000F05D008A80022C5F1010C9742DC
:101810000ED1C5F101030DF120084FF0000A01932C
:101820000DF1300B574512D1601B8DE66B70E5E76B
:1018300010F8013B190608D50CEB040EB64503F071
:101840007F033FF67FAE04F8013B0132DFE7B9F1D9
:10185000000F03D098F90020002A17DB029BD3B1B8
:101860001AF80B2004F8012B0022019B18191044D0
:10187000B0423FF667AE98F8000004F8010B0099FB
:101880000392204608F048FF039A14440AF1010A23
:1018900008F10108C6E798F8002055F822300093B7
:1018A000029B45F82230009808F02FFF421CDCE72D
:1018B0006FF00D0048E600BF014B1860704700BF95
:1018C000B00000202DE9F04F95B0824603911746F5
:1018D0001C460025387808B9284660E3252809D039
:1018E0000399D0470028C0F25A837B1C013504932A
:1018F000049FEFE7182200210EA808F018FF7B785C
:10190000252B7DD00023781C98469E469C461E467B
:10191000014610F8012B2B2A00F0A18000F29880DC
:10192000202A00F09F80232A00F09F802BB19DF891
:10193000403043F040038DF84030B8F1000F05D03F
:101940009DF8403043F020038DF84030BEF1000F89
:1019500005D09DF8403043F010038DF84030BCF1C5
:10196000000F05D09DF8403043F008038DF840305B
:101970002EB19DF8403043F004038DF840309DF8BF
:10198000403003F04400442803D16FF386138DF8F0
:1019900040309DF840302A2A43F080038DF84030D3
:1019A0007FD19DF8412042F001024B1C8DF841206F
:1019B0001A782E2A9DF841200CBF0121002161F3E5
:1019C00041028DF8412078D15A782A2A6ED001330D
:1019D00000224FF00A0C194611F8010BA0F1300655
:1019E000092E40F295809DF840101292C1F34000FC
:1019F00040EAD2700A4660F341028DF840205CE074
:101A00008DF84330BB1C04939DF84130DA0740F158
:101A10002E8154F8048BB8F1000F07DA9DF84020AE
:101A200042F004028DF84020C8F100085E0740F142
:101A3000278154F804BBBBF1000F80F226819DF88A
:101A400041306FF341038DF841304FF0FF3B1CE113
:101A50002D2A0DD0302A7FF469AF012358E74FF0CB
:101A6000010C55E74FF0010E52E74FF001084FE728
:101A700001264DE70EFB0262303A0346184610F885
:101A8000016BA6F1300CBCF1090FF3D999428FD04C
:101A90009DF840101192D20F62F341018DF8401071
:101AA00086E70B4600224FF00A0EE7E79DF841203B
:101AB00042F004028DF8412002331A786C2A47D094
:101AC0002BD8682A31D06A2A4BD04C2A51D01A46DA
:101AD00012F8013B0492782B9DF841208DF8433099
:101AE00000F2BE806D2B51D8692B00F2B980572BC4
:101AF00067D8412B03D0453B022B00F2B1809DF803
:101B00004230042262F302038DF84230012373E075
:101B10000CFB0202303A0B465DE7742A25D07A2A84
:101B2000D5D19DF8412006210CE05A78682A9DF80D
:101B3000412006D1012161F3C6028DF84120023314
:101B4000C5E7022161F3C6028DF841200133BEE7EB
:101B50005A786C2A9DF8412001D10421EBE703213A
:101B6000F0E79DF841200521ECE79DF84120072191
:101B7000E8E7BDF8402022F4F04222F0020242F4ED
:101B8000804242F00202ADF84020DFE76E3BD9B25E
:101B900001238B4040F282410B4237D113F0240FD6
:101BA00051D1D8075CD59DF84230032161F302037F
:101BB0008DF8423002F07803A3F140014B424B41D3
:101BC0001AE0A3F15801C9B2012000FA01F111F4A1
:101BD000624F94D140F6010631421DD111F4043F09
:101BE0003ED09DF8423060F3020302F07802402AB2
:101BF0008DF8423034D000239DF84020C2F34001DC
:101C00000B4363F341028DF84020FDE69DF842301E
:101C1000022161F30203E8E79DF84210022002F07E
:101C2000780260F30201402A8DF8421002BF9DF84D
:101C3000401041F001018DF84010632BDBD1131EE1
:101C400018BF0123D8E79DF84230032161F3020356
:101C500012F0780F8DF8423014BF01230023CBE738
:101C60009DF8403043F001038DF84030C3E79DF903
:101C70004020002AB4BFDDF844804FF0FF38D5E69D
:101C800098077FF5E2AEDDF848B09DF841100023DB
:101C9000CDE911339DF8423003F00703012BC1F366
:101CA000C30132D1CB1E042B04D8DFE803F020455A
:101CB00045202000236801294FEAE372CDE90E3266
:101CC0001BD19DF93830DA17CDE90E3204349DF876
:101CD000403013F003064FD0049B03993A46504618
:101CE00008F0DBF80028C0F25A81054400E654F8F9
:101CF000043BDA17CDE90E32E9E70229E6D11AB240
:101D000043F3C033CDE90E23E0E7022B24D1CB1EF1
:101D1000042B04D8DFE803F018101018180001296C
:101D200054F8043B4FF0000214D00229CDE90E32E2
:101D3000CDD19BB20E93CAE7073424F00704F4E830
:101D40000223CDE90E23C2E754F8043B0E9300238F
:101D50000F93BCE7DBB2CDE7042B08D1073424F0A6
:101D60000704D4E900230834CDE90E23AFE7032BA1
:101D7000ADD154F8043BDDE79DF8430078283FF6E9
:101D8000B7AD62281DD825284ED058287FF4B0ADB5
:101D90000DF136030093DDE90E0108AB10AA08F03F
:101DA00034F8BBF1000F074680F2C280002F3FF4E9
:101DB0009FAD0DF13609A9EB0700002E49D0013087
:101DC00047E0633815283FF693AD01A252F820F0A2
:101DD000F31E0000051F0000F1180000F1180000BC
:101DE000F1180000F1180000051F0000F1180000B4
:101DF000F1180000F1180000F1180000511F000058
:101E00002B1F0000B31E0000F1180000F1180000A5
:101E1000371E0000F11800002B1F0000F118000011
:101E2000F11800002B1F00000399D0470028C0F2D2
:101E3000B68001355CE5BBF1000F0E9F35DB5946DE
:101E4000384608F080FC07EB0009002F3FF450AD46
:101E500000269DF8423013F01002059200F09280A7
:101E600002305B06DDF844B048BF129B584448BFBF
:101E7000C018B8F1000F40F39F809DF84020A8EBF8
:101E80000008C2F380035007069300F195805106C5
:101E900040F188803EB103993046D04700287EDB70
:101EA000069B01351E4630227DE0384608F02DFCA9
:101EB000C9E70E9800285FD00DF1360908ABCDF8C0
:101EC000009010AA002107F0A0FFBDF8423003F0F7
:101ED000EF0343F4F04343F01003BBF1000F074658
:101EE000ADF8423023DA00283FF402ADA9EB000040
:101EF000AEE70E9B8DF82030002608AF0DF12109CA
:101F00000120A6E719075CBFC3F300135E01DDE9FA
:101F10000E2348BF2B26002BBFF63AAF524263EB8D
:101F20004303CDE90E232D2632E7002630E70026B5
:101F30009DF840200DF13603DB1B6FF386129B45A5
:101F40008DF840207FF632AFABEB030311932DE702
:101F50000E9B07293FF6CCACDFE801F00C04060C21
:101F600008080C0C1D70C3E41D80C1E4EA17C3E926
:101F70000052BDE41D60BBE42E4F064607F1050983
:101F8000052066E71A0748BF01306AE70793104645
:101F900006920399D0470028DDE9062304DA15B03C
:101FA000BDE8F08F202243461946002903F1FF3394
:101FB000ECDC45446D1A98462EB103993046D04763
:101FC0000028ECDB01359DF84230DA0601D41B070E
:101FD00005D503993020D0470028E0DB0135059B6B
:101FE00033B103999DF84300D0470028D7DB013572
:101FF000AB4405E003993020D0470028CFDB013502
:10200000ABEB0503002BF5DC03994B463A465046F3
:1020100007F043FF0028C2DB0544A844A8EB0503F2
:10202000002B7FF765AC03992020D0470028B6DB52
:102030000135F3E74CBC00002DE9F047058B044661
:102040002807904611D4022905F0070540F0CC80FE
:10205000204607F054FF78B10138218B042811D8AD
:10206000DFE800F0C2106D85950001290CBF45F036
:10207000100545F02005258388F31188BFF36F8F85
:10208000BDE8F08701F0070AAA4500F0A580002707
:10209000B9463E46A368002B00F0BC8041F0080121
:1020A000218388F31188BFF36F8FA168002900F0A6
:1020B000BA800D68002900F0B680D1F8048033465C
:1020C00052462046C047002D76D02B6829461D4633
:1020D000F0E701F007035A1F012A1BD8002221F064
:1020E0000701062B276889B2C4E9002209D13B46C3
:1020F00003E0628B013262831B68002BF9D141F04F
:1021000002012183204607F0FAFE00287AD041F030
:10211000200176E0042B0AD121F0070189B2218346
:10212000204607F0ECFE10B141F020012183218B05
:1021300001F0070AAA454FD00027B946AAE723694C
:1021400021F0070141F00601062DD3F8009021830C
:102150002DD1B9F1000F3FD041F00801218388F360
:102160001188BFF36F8F3A492046C84729E021F014
:102170000701236941F0040189B2042DD3F80490CA
:102180002183E6D000273E464FF0040A82E721F083
:102190000701236941F0050189B2052DD3F80890A4
:1021A0002183D6D000273E464FF0050A72E700276C
:1021B0003E464FF0060A6DE72B4687E7B9F1000F60
:1021C000D1D1EFF31188202383F31288BFF36F8FEF
:1021D000238B23F008032383258BEA062ED525F0D5
:1021E0001003238305F007056669218B002EBFF6D7
:1021F00070AF00232768C4E9003321F0070141F0E4
:1022000001012183218B01F0070AAA454FF0000943
:102210007FF440AF002F9CD041F00801218388F368
:102220001188BFF36F8F002FC8D03D683946334601
:102230005246204607F08FFE2F46F4E7AB067FF5A7
:102240001BAF25F02003238305F0070500E700BF3F
:10225000839F00002DE9F84F81462F480F4608F074
:1022600011F8064670B92D4CDFF8B4A00546A0461B
:102270004FF0010B544507D3B9F1000F02D04FF0D6
:10228000010AE5B9BDE8F88F237B6BB12368DB68F1
:102290000BB12046984723681B6943B96368042241
:1022A0001968204600F0C8F801361034E2E72046ED
:1022B00098470028F2D00BFA06F31D43F4E7A9462D
:1022C00095FAA5F4B4FA84F40AFA04F3260108EBAB
:1022D00004146FEA030B25EA0305237B63B158F866
:1022E00006301B6993B94644042273682046196876
:1022F00009EA0B0900F0A0F8002DE1D127B14FF455
:10230000A470002108F0FCFF4D46BAE7204698472C
:102310000028F1D1E7E700BF7C070020F8B80000F3
:1023200008B90000014B53F82000704738B900008D
:1023300008B5034608462BB1044A136000F082FA40
:10234000002008BD6FF01500FBE700BFB4000020BF
:10235000054A064800231370054A1360054A4FF4E6
:1023600000411360FFF7E4BFE41B002081A20000DE
:10237000740700207807002070B50B4D297841B90B
:102380000120FFF767FF094C094EB44202D3012335
:102390002B7070BD63685B791BB1236820469B6816
:1023A00098471034F1E700BFE41B0020F8B80000A4
:1023B00008B9000010B50446084807F063FF5CB197
:1023C000BFF35B8F064B53E8001F013943E800124F
:1023D000002AF8D1BFF35B8F10BD00BF7407002047
:1023E0007807002070B50A4B0A4C1B680A4E054658
:1023F0009847A860B44200D370BD63685B7923B18D
:10240000236829461B68204698471034F2E700BF2E
:10241000B4000020F8B8000008B90000044A054BD9
:102420009B1AB1EBD30F34BF52F831000020704734
:1024300098B80000F8B80000084BC31A10B41B117C
:1024400044680133237143689A7143681960436893
:1024500001225A7110BC07F037BF00BFF8B8000066
:102460002DE9F04F87B004AFD7E90EA93D6B0446C4
:102470000E4693469846BAF1000F1ED0C7F8049056
:10248000CDF8009010217A6B53460020FFF742F8F8
:10249000B0F5006F014611D340F2FF730393194B5F
:1024A00002930023CDE9003317490222184607F0B2
:1024B00027FF0C37BD46BDE8F08F514604F00704F6
:1024C0000BF0070BE40044EA8B1444EA412444EA8D
:1024D000055417350D4425F00705ADEB050D04AD8A
:1024E000BAF1000F07D0CDF800907A6B534605F192
:1024F0001000FFF70FF8434622463146284607F002
:10250000E6FED6E75FBC0000B0B80000406820B12E
:10251000034BC01A40F3CF0070474FF0FF307047B5
:1025200098B800000EB403B503AB014653F8042B72
:102530000448019307F01EFF02B05DF804EB03B0FE
:10254000704700BF3DA30000CA0605D48B064CBFF0
:1025500002490349FFF7E6BF704700BF98BC00007F
:1025600097BC00002DE9F04F87B004469DF8446009
:102570000D4690469946002E00F0A280159B03F070
:10258000020A03F001030493159B03F0080B03F404
:102590008073059307F099FE024600283DD09549C7
:1025A0002046FFF7BFFF0746BAF1000F09D0159B81
:1025B00013F0440F33D190492A462046FFF7B2FF6B
:1025C0000744049B53B18D4B8D4953F826208D4B06
:1025D0002046002A08BF1A46FFF7A4FF059B002BE0
:1025E00049D0BBF1000F64D1B8F1000F66D0864925
:1025F00042462046FFF796FF0546129B3D44002BBE
:102600006DD1149B002B73D1159BDB0700F1EB8080
:1026100015992046FFF798FFD8E00746C4E77B4BA3
:1026200018680028CCD07A4B4FF47A7A1B68B5FB37
:10263000F3F54FF46163B5FBF0F100FB11550AFBB4
:1026400005F54FF03C0CB1FBF3F203FB1211B5FBA7
:10265000F0FEB1FBFCF300FB1E550CFB13110AFB53
:1026600005F50091B5FBF0F56A49CDE901E5204695
:10267000FFF758FFA4E7BBF1000F1DD0664B674979
:1026800053F826202046FFF74DFF0546B8F1000F0E
:1026900005D05D4942462046FFF744FF0544B9F1A5
:1026A000000FAAD05E494A462046FFF73BFF05448B
:1026B000A3E74FF00009E1E75D46E7E745469CE701
:1026C000B9F1010F129B06D1002B66D1149B002B90
:1026D0007CD000250CE0002BF8D052485EE0524838
:1026E000129B5249224607F046FB149B002B6AD0EE
:1026F000DFF83C81DFF83C91149F1599102F20469C
:1027000028BF1027FFF720FF4FF0000B5D4547DC87
:10271000139B49461A782046FFF704FF4FF0010B40
:102720001BF0070F03D141462046FFF7FBFE5F4534
:102730003DD9139B494613F80B202046FFF7F2FEC4
:102740000BF1010BBBF1100FEAD13B49DFF8ECB004
:1027500020464FF0000AFFF7E5FE5246139B9A5CB5
:10276000A2F120015F2928BF2E2259462046FFF7FB
:10277000D9FE0AF1010ABAF1100F1DD01AF0070FA5
:1027800003D141462046FFF7CDFE57455246E5D8D6
:1027900041462046FFF7C6FEEBE7234835469FE754
:1027A00041462046FFF7BEFE0BF1010BAEE7244980
:1027B0002046FFF7B7FEC3E7139B3B441393149BDC
:1027C000DB1B149398D1002E7FF41EAF6268A168C2
:1027D0002068D2E9002307F0A3FD636800221A6095
:1027E00007B0BDE8F08F074A05492046FFF79AFE7B
:1027F0000EE700BF9FBC0000A3BC000048B900006A
:10280000C8BC00009ABC0000CBBC000084070020BC
:1028100080070020ACBC00005CB90000CFBC000009
:10282000D5BC000059A300003DA3000075A3000023
:10283000E2BC0000DABC0000E4BC0000E6BC000022
:10284000E0BC0000074A00210123904206D8064A56
:1028500001B901231360054B1860704740085B0005
:102860000121F2E740420F0080070020840700208A
:10287000F8B5074F0D4604464618B44201D1284624
:10288000F8BD14F8011BBB6801485B689847F4E782
:1028900028B60000014B036000207047A4B9000077
:1028A000F0B40C4B0C4E5F6A0C4BB34203D36FF089
:1028B0008500F0BC70475D68BD4209D31C693CB11E
:1028C00095F802C00579AC4502D12346F0BC184703
:1028D0002433EAE7AC070020C8030020A40300204B
:1028E0002DE9F047134CDFF85080DFF85090054693
:1028F0000E461746444503D36FF08500BDE8F087C8
:102900006268D9F824309A4212D3A36983B19078CF
:102910002979884205D13A4631462846BDE8F04734
:1029200018475279012A03D13A463146284698473A
:102930002434DFE7A4030020C8030020AC070020F4
:102940002DE9F0410B4CDFF8308005460E46174666
:10295000444502D36FF0850009E063690BB9243464
:10296000F6E73A463146284698470028F7D1BDE8B1
:10297000F08100BFA4030020C803002010B5044666
:1029800007F010FF10F1780F00D050B9054A20462B
:1029900007F060FDD2F8C43023EA0003C2F8C43067
:1029A000002010BDAC07002002480822002107F0DB
:1029B000BEBE00BF6708002070B50B4B0B4CA34296
:1029C00001D3002070BD196A1E7F00220439D5B2E0
:1029D000AE4201D82433F2E7013211F83250854279
:1029E000F5D10120EEE700BFA4030020C8030020BA
:1029F00008B509480378C3F341130A3350F823306C
:102A00003BB100F1080200F110019847C043C00F2C
:102A100008BD1846FCE700BFAC07002004282DE9DC
:102A2000F14FDFF8989004460F4616D001282DD1BB
:102A3000DFF88C8098F8B93043B300F0DFFD214D0A
:102A40004D4520D2D5F820B04FF0000A2B7F5FFA19
:102A50008AF6B34204D82435F2E7FFF7A5FFE7E78B
:102A60000BEBC6060AF1010A307907F09BFE02461D
:102A7000307907F0EFFCD8F8C430002A23EA0003CD
:102A8000C8F8C430E2DA002388F8B9300D4D4D455E
:102A900008D30B4B1B6A6BB13946204601B0BDE829
:102AA000F04F1847EB681BB13A4621462846984735
:102AB0002435ECE701B0BDE8F08F00BFC80300206B
:102AC000AC070020A403002073B5C4B263060D4612
:102AD0008DF8074007D02046FFF76EFF78B10D4B09
:102AE00093F8BA0058B10B4E204655B102F05EFC87
:102AF000F3691BB10DF1070108209847012002B0CE
:102B000070BD02F08BFCF369002BF7D00DF10701CB
:102B10000920F2E7AC07002073B586788DF80060D5
:102B2000037942791C4C43EA0223ADF80230C378A2
:102B3000304603F003038DF8043007F08BFCD4F823
:102B4000C430184205460BD0304600F039FD3046FF
:102B5000FFF714FF08F032FB10B9962006F03AFA9E
:102B6000684602F0EFFB10F1780F03D010B100209F
:102B700002B070BD9DF8000002F08CFC10F1780FDF
:102B800001D00028F3D1D4F8C43001202B4384F8BD
:102B9000B900C4F8C430EBE7AC0700202DE9F047DA
:102BA000924DAB6904460E461746C3B9207800F033
:102BB0001F00012876D0022800F0DC8000BB94F9C9
:102BC00000103A68637800292EDA062B0CD0082B07
:102BD00025D0ABB9537001231370022303E198474A
:102BE0000028E3D100200DE06388190A0A1F012A9A
:102BF0008C4605D9072903D8DAB26B6A1C781CB950
:102C00006FF01500BDE8F0875D78654503D182421D
:102C100000F0E48001302344F0E71B78E3E095F80E
:102C2000BA3013700123DEE0052B11D0092BE7D158
:102C300063886E6A002B32D1FFF7B6FE638885F891
:102C4000BA30EB69002BCDD0694903209847C9E71A
:102C5000A07802F02BFB0028C4D0D1E77378042BB6
:102C600010D0052B11D0022B04D177796388BB4299
:102C700008BF012033781E443378002BEED10028A2
:102C8000BED0D9E796F80380F4E76388BB42F1D160
:102C9000B8F1000FEED13046FFF73EFFEAE7FF271D
:102CA000B846E9E795F8BA30D7F800C0002BA7D0AE
:102CB0006F6AA28894F804E03B46187800289FD0F9
:102CC0005978022904D193F80480F04500F29280EB
:102CD0000344F2E78CF800308CF80130316081E772
:102CE0001F4493E00B2B8BD100264FF0FF08C14609
:102CF000B24606E07B78042B0FD0052B21D03B7821
:102D00001F443B78002BF5D1EB6913B151460720E6
:102D10009847002E7FF466AF72E797F80280A38889
:102D200097F803909845EAD163889945E7D1B8F1BF
:102D3000070F1CD805EB0803BA4683F8BB900126A1
:102D4000DDE7A3884345DAD1A3784B450AD0BE78A6
:102D5000304600F035FC3046FFF710FEB0FA80F642
:102D60007609CCE73846FFF7D7FE0646C7E7BA46EE
:102D70000026C4E794F900206378002A18DA002BB3
:102D80007FF43EAF24793F6863060AD02046FFF700
:102D900013FE00283FF434AF95F8BA30002B3FF40F
:102DA0002FAF3946204602F059FB00237B7014E711
:102DB000012B08D0032B7FF423AF6388002B7FF413
:102DC0001FAF012103E0618800297FF419AFA088BB
:102DD000FFF77AFE00287FF405AF11E702293B6078
:102DE0007FF41BAF5B883360FCE600BFAC070020BC
:102DF0006608002094F9000063780028BFF672AFDF
:102E0000002B3FF467AF0A2B7FF4FAAE3B78002B20
:102E10003FF4F6AE797804297FF462AFB9788A423C
:102E20007FF45EAF072A96BF5219002392F8BB3099
:102E30008CF80030F6E600BF13B5164C237DF3B9CD
:102E4000E268A168019201AB802007F011FB019AB2
:102E5000A3681344A360E3689B1AE3606BB962B193
:102E60002369E2889A4208DD94F8C82093FBF2F1C6
:102E700002FB11330BB90123237502B010BD0023EF
:102E80001A4619468020237502B0BDE8104002F0B2
:102E90002BBB00BFAC07002030B585B00023024635
:102EA0000D460193002858D1002935D108220B4640
:102EB0000DEB020107F08FFC002804DA802002F0FD
:102EC00075FA05B030BD2A4C029A2260039A6260FE
:102ED00004F13802A2609DF90820BDF80E30257576
:102EE000002AC4E903550ADB802B04D9802002F0B4
:102EF0005DFA0020E3E713B1C4E90333E1E7FFF72C
:102F000077FD0028DAD0E28823699A42D4BFE260D4
:102F1000E360FFF791FFD4E7154CD4E90215002DCB
:102F200001AB04DC07F057FC0028CADAC6E72A46E2
:102F300007F051FC0028D9DB019AA3681344A36071
:102F4000E3689B1AE360002BBBD104F13803A36054
:102F5000FFF74EFD0028DCD1B0E78028B1D1044B4B
:102F6000DA68002AD5D11B7D002BD2D1A9E700BF9A
:102F7000AC070020054B064A9A62064ADA62064A06
:102F80001A63064A58629A6100207047AC07002015
:102F90009D2B0000A128000041290000E12800002D
:102FA0002DE9F3410446474D47484FF0FF334FF0BA
:102FB000FF3205F0A3FA95F8B830002B7BD16B6A8D
:102FC00083B142482C62E8616E6A02F0E5FB02F0D0
:102FD0003BF9041E10DA3C4805F008FB204602B01D
:102FE000BDE8F08100F0BEF8FFF7C4FF6B6A002B6C
:102FF000E7D14FF0FF34EEE700F022FB041EEADBDE
:103000007378012B5AD1F379002B57D000266846EC
:1030100085F8C830ADF802308DF804608DF8006096
:1030200002F090F9041ED6DB802768468DF8007008
:1030300002F088F9041ECEDB2549304602F098FBE9
:10304000041EC8DB2249384602F092FB041EC2DB94
:10305000204CDFF8848044451AD3002002F01AFA8D
:10306000041EB8DBD5F8C430802043F00103C5F856
:10307000C43002F00FFA041EADDBD5F8C43043F4BF
:103080008033C5F8C430012385F8B8300024A2E7A6
:10309000276A0026227FF3B29A4201D82434DAE765
:1030A00007EBC30257F83310107902F061FB0136C9
:1030B0000028EFD09DE76FF077048CE76FF01504E0
:1030C00089E700BFAC070020CC0200201D2A0000C9
:1030D000992E0000A4030020C803002030B51F4B28
:1030E0008BB005AA03F1100518685968144603C48B
:1030F0000833AB422246F7D11B78237010220021FF
:1031000001A807F014FB12220021154807F00FFB5D
:10311000102101A807F060FC00281BDD0828B8BFBB
:103120000820093801AB0E491A18002012F8013F97
:103130000AAC04EB131403F00F0328336B44013083
:1031400014F8144C13F8143C0C7008284B7001F15F
:103150000201EBD102480BB030BD00BF23BD00001F
:10316000E71B00202DE9F04F754B93F800B087B0B6
:10317000BBF1000F03D0734807B0BDE8F08F714C6E
:1031800000264FF0011AB0463546B14623783BB9C8
:103190006D4B02349C42F3D1694A01231370EAE774
:1031A0006378052B1BD8DFE803F08E03C88E1D392A
:1031B000402304A88DF810B0ADF812308DF814B08B
:1031C00002F086F840B1082304A8ADF8123002F0EE
:1031D0007FF808B1ADF812B0BDF81230E371237872
:1031E0001C44D3E7E378002BF9D1A37863B108F14D
:1031F00001085FFA88F8F2E76A68944207D024353C
:103200009D42F9D30020B7E7504D514BF8E7AB682A
:10321000002BECD0414620469847E8E7002DF1D03E
:1032200000222B7F9A42EDD2296AA07801EBC201DD
:103230000B79984201D00132F3E70127E07800F0E2
:1032400003008DF81400207994F805C040EA0C20A2
:10325000ADF8120094F902000028FBB228DA07F159
:1032600010004FF0010C0CFA00F010EA0A0F26D102
:1032700043F080008DF8100004A8CDE902130192FC
:1032800002F026F8DDE90121039BC0B99DF810206A
:10329000A27012F0800F18BF10330A7118BFDBB292
:1032A0004FF0010214BF9A40BA404AEA020A96E778
:1032B0000120B84010EA0A0F01D11846DAE70137B9
:1032C000102FBBD1B7E7032E1FD1FFF707FF07462B
:1032D00078B107F01AFA019058B11E4807F015FAB4
:1032E000019B984202463946A8BF1A46A01C07F027
:1032F00013FA23786FF00201E218091B04EB530361
:10330000D14213D50136F6B269E7002EF1D1B9F1F9
:10331000000F3FF477AFA4EB090389F80230C3F341
:10332000072389F8033089F80480EBE702F801BC31
:1033300013F8010902F8020DE2E7A1464FE700BFCA
:10334000E61B002000030020A3030020A4030020AC
:10335000C803002023BD000010B5094B00211A4608
:103360001C78844204D15C6814B102EB811010BD5A
:103370000131042903F14003F2D10020F7E700BF37
:10338000780800202DE9F34150F8283C10F82C6C07
:10339000103304460AD1036950F8202C980736D51B
:1033A000D2B9590715D5002344F8283C54F8283CD5
:1033B00010330BD054E9077554F8148C07F0FEFE57
:1033C00000284FD02E48214607F0DCFE02B0BDE8B1
:1033D000F08143F00403236154F8241C01AB304610
:1033E00007F046F810B16FF01503DDE7019A54F8C5
:1033F000243C134444F8243C54F8203C9B1A44F8E1
:10340000203C54F81C3C134444F81C3CCEE754F8D0
:10341000241C01AB304602F0FBF80028E3D1019DEB
:1034200054F8243C2B4444F8243C54F8203C5B1BC7
:1034300044F8203C54F81C3C2B4444F81C3C002D20
:10344000B1D0304602F0AEF9B5FBF0F303FB1055F6
:10345000002DA8D154F8203C002BA4D0304602F017
:1034600035F9A3E744F8180CA4F1100005F040F971
:10347000002DABD0424639463046A847A6E700BFEC
:10348000C80300204B1E012B73B506460D460FD80E
:10349000FFF762FF044668B9012D09D101AB012293
:1034A0000DF10301304602F0B3F8019B002BF5D17A
:1034B00002B070BD07F082FE04F12C0108B1012DAD
:1034C00005D1084602B0BDE87040FFF75BBF034876
:1034D00002B0BDE8704007F055BE00BFC803002031
:1034E0002DE9F74F064601911546984607F00BF86F
:1034F000044600285BD1EFF3118A202383F312885E
:10350000BFF36F8FDFF8ACB000220023584605F000
:1035100023F970B9DFF8A090A70109EB8414636860
:1035200013F1100F14D10193584605F0E1F8019BF7
:1035300006E00134042C0BF1400BE5D16FF00B03D6
:103540008AF31188BFF36F8F184603B0BDE8F08F80
:10355000019B2061C4E902350C9B63610D9BA36153
:1035600030466FF00F0309F80760C4F83C806360D1
:1035700002F018F958B1304602F014F9B5FBF0F337
:1035800003FB10551DB1E36B43F00403E36318F034
:10359000020F07D007F12C010848494407F0F2FD5B
:1035A0000023CDE7304602F091F80346C8E76FF0FC
:1035B0000F03C9E79408002078080020C803002002
:1035C00010B5EFF31184202383F31288BFF36F8FBC
:1035D000FFF7C2FE50B14368103307D16FF08B0381
:1035E000436000F12C01044807F0CCFD84F31188FE
:1035F000BFF36F8F10BD00BFC8030020F8B50E4C9D
:1036000004252027EFF3118687F31288BFF36F8F0D
:103610006368103307D16FF08B030848636004F1CF
:103620002C0107F0AFFD86F31188BFF36F8F013DCA
:1036300004F14004E6D1F8BD78080020C80300205A
:1036400070B50A4C0A4E00253146204607F07EFD33
:103650000122A4F110001146013507F03BFD042DB5
:1036600004F14004F0D1002070BD00BFA408002088
:10367000853300000169012381F84B300B6833B1B9
:1036800091F849301BB10248083107F07BBD704703
:10369000C80300200169012381F84A300B6833B167
:1036A00091F848301BB10248083107F06BBD7047F4
:1036B000C803002070B50569EFF31186202383F35A
:1036C0001288BFF36F8FD5F8900006F062FD0446B4
:1036D00086F31188BFF36F8F30B1044800220023B6
:1036E00005F1180105F09CF9204670BDC8030020C3
:1036F00070B5012382F8483013680D4614463BB17B
:1037000092F84A3023B10E4802F1080107F03AFD61
:10371000D4F890301A699B689A4205D17DB904F1BA
:10372000180140F6CD4204E004F11801002DF8D054
:103730000022BDE870400248002305F071B970BD59
:10374000C803002070B504460E460179124815469C
:1037500006F0B5FEE8B194F900206378002A11DB89
:10376000202B04D0222B09D06FF0850005E02968BA
:103770000722103806F0D0FF002070BD638800F8E3
:10378000093CF9E7212BEFD110380723286033607B
:10379000F2E76FF01200F0E77809002008B5014663
:1037A000034806F09AFE10B1012300F8073C08BD5B
:1037B000780900200D4A03460021A0F8481010683F
:1037C000C3F8940090889279A3F8980083F89A201F
:1037D00083F89C1083F89B10A3F89E1083F8A01028
:1037E000402203F14C0006F0A2BF00BF18B9000050
:1037F000F0B5D0F88C305B681B6A1F7D85B004463D
:10380000384606F080FE0646F8B994F88630E3B1F3
:10381000A06F4FF4806203A906F0DAFC0546A0B160
:103820008306A4F1180308BF00F1FF3584F8306067
:103830000193074B039900932A4602233846FFF76A
:103840004FFEA06F294606F0E3FC05B0F0BD00BFB7
:10385000F136000010B504690023C4F8A8300C4B01
:10386000C4F8A400596804F1A80269B9C3E90022A8
:1038700004F10800074907F069FC04F11800064943
:1038800007F090FC002010BD0A605A60F0E700BF0E
:103890007809002031A50000F137000073B50469F4
:1038A0008DF80710002384F848302025EFF31186A7
:1038B00085F31288BFF36F8F0122D4F890000DF1C9
:1038C000070106F066FC86F31188BFF36F8F0128AD
:1038D0000AD007F073FC10B994F8A1306BB9094B0A
:1038E0001A780AB901221A702122002304F1180162
:1038F000054805F095F802B070BD0021212007F0C1
:10390000FFFCD3E7F91B0020C803002037B514469D
:103910000A1E054620DDD4F88C0004F14C0106F0A7
:1039200038FC012384F8493023683BB194F84B30CC
:1039300023B1114804F1080107F024FCD4F88C10DD
:103940004B684A699A1ACB699B1A3F2B04D801230A
:1039500084F8A03003B030BD94F89E30002BF9D02D
:10396000064B009301940123402204F14C012846A8
:10397000FFF7B6FDEEE700BFC80300200D390000D9
:10398000F7B50D4601461D4806F08DFD044610B3FF
:103990000646691E56F8A4395F6805291BD8DFE87A
:1039A00001F01C1A031C222610F8061C99B90123E9
:1039B00000F8063C3B6A3246187BFFF7A7FF14F875
:1039C0005C2C42B93B6A187D0D4B00930196022393
:1039D0001146FFF785FD03B0F0BD304603B0BDE8EA
:1039E000F040FFF7E7BE012304F8053CF3E710F8C9
:1039F000053C002BEFD00023F6E700BF780900203C
:103A0000F136000037B5094D0949002400944FF004
:103A1000FF334FF48062284604F0C4FF054928466E
:103A200007F0D2FB204603B030BD00BFC803002022
:103A3000401C002047BD000008B5044806F0CEF940
:103A4000BDE80840024806F0C9B900BF50BD0000FB
:103A500085BD0000014805F0F1BD00BFA4B900001C
:103A600038B5044618B90F4B0F485B689847616832
:103A7000B1F5683F10D0B1F5680F0DD00B4DA942DC
:103A80000AD011F46861206807D00146084807F0A1
:103A900045FA00232360656038BD142206F047FE16
:103AA000F9E700BFF0010020B3BD00002C5F5CA966
:103AB000800E002008B520B34368B3F5683F10D1ED
:103AC00001220368BFF35B8F53E8001F002903D175
:103AD00043E800200028F7D1BFF35B8F0DD1002011
:103AE00008BD094A93420AD000684FF0FF324FF0F8
:103AF000FF3304F003FD0028F1D00448F0E7044848
:103B0000EEE76FF4E040EBE72C5F5CA9E98FFFFF85
:103B1000EA8FFFFF08B5D8B14368B3F5683F10D10D
:103B200000220368BFF35B8F53E8001F012903D114
:103B300043E800200028F7D1BFF35B8F0BD10020B2
:103B400008BD074A934208D0006804F04FFDF6E72D
:103B50006FF4E040F4E70348F2E70348F0E700BF02
:103B60002C5F5CA9E98FFFFFEA8FFFFF10B50446C9
:103B700018B91D4B1D485B6898476368B3F5683FEB
:103B80002FD0B3F5680F2CD0194A934219D123686E
:103B900003BB18484FF0FF324FF0FF33214604F0CB
:103BA0007FFC08B923681BB90F4B13485B68984723
:103BB00020681422002106F0BAFD4FF468636360A8
:103BC00008E0B3F5683F0DD83A2B03D040F6BA624F
:103BD0009342DED1206807F0EBF9636843F03A03C3
:103BE000636010BD054AF3E7F0010020B3BD00009B
:103BF0002C5F5CA9800E0020D9BD00003A00003A7D
:103C000008B5064906484023142207F079F9BDE8B3
:103C100008400449044805F083BD00BF8009002026
:103C2000800E0020ACB90000C0B9000070B5064697
:103C300086B00D46002938D08B6805934B680493F5
:103C40000B6803930024244B24490293012223464A
:103C50002046CDE9004406F0E6FC6B6905932B692C
:103C60000493EB6803931E4B1C490094CDE9014378
:103C700001222346204606F0D6FCEB690393194B3C
:103C800016490094CDE9014301222346204606F05F
:103C9000CAFCAB690393144B10490094CDE901436E
:103CA00001222346204606F0BEFC012E0DD1EFF383
:103CB0000583103B03930D4B02930023CDE90033A2
:103CC00006493246184606F0AEFC2946304606B094
:103CD000BDE8704004F040BA06BE0000D8B800004D
:103CE00035BE000064BE000073BE0000A1BE00002F
:103CF00030BFFFF7FDBF00BF074A936893F90E106E
:103D0000002907DB526993421FBF044A536843F0FE
:103D100080535360704700BFD419002000ED00E0CD
:103D2000F0B585B00024434B0293CDE9004423460F
:103D300007460E4601224049204606F08FFC3F4BC5
:103D40009B6ADB0465D53E4B3B490094CDE90143BA
:103D500020462346012206F081FC1720374B9B6A40
:103D60001D050AD5374B029300231846CDE90033D1
:103D70003149012206F072FC1820304DAB6A9C05D7
:103D80001FD50024304B0293012223462046CDE963
:103D90000044294906F062FCAB6BAA6A10040FD5F7
:103DA00003932A4B24490094CDE901430122234681
:103DB000204606F053FC1FB1AB6A23F40043AB620C
:103DC00019201E4B9B6A59050AD5214B02930023EB
:103DD0001846CDE900331849012206F03FFC1A20AD
:103DE000164A936A13F4807315D01A4B029300237A
:103DF0001846CDE900331049012206F02FFC1B20A4
:103E00000E4A936A43F47F4393620023337005B0F4
:103E1000F0BD1620A2E7926A9204F1D50E4A064937
:103E20000093CDE901321846012206F017FC1C2050
:103E3000E6E700BFB4BE0000D8B8000000ED00E027
:103E4000CABE0000DBBE0000EEBE000007BF0000DF
:103E50001CBF000037BF00004FBF00001FB500248B
:103E6000374B029301222346CDE9004435492046D1
:103E700006F0F4FB344B9B6A9A015ED5334B314913
:103E80000094CDE9014320462346012206F0E6FBDB
:103E90001E202D4B9B6ADB010AD52D4B029300237C
:103EA0001846CDE900332749012206F0D7FB1F2031
:103EB000254B9B6A1C030AD5264B02930023184608
:103EC000CDE900331F49012206F0C8FB21201E4B1B
:103ED0009B6A59030AD5204B029300231846CDE96B
:103EE00000331849012206F0B9FB2220164B9B6AC9
:103EF0009A030AD5194B029300231846CDE90033E3
:103F00001049012206F0AAFB23200F4B9B6ADB031A
:103F10000AD5134B029300231846CDE90033094913
:103F2000012206F09BFB2420074A936A6FEA0343B1
:103F30006FEA1343936204B010BD1D20A9E700BFD0
:103F40007EBF0000D8B8000000ED00E096BF000082
:103F5000A9BF0000C3BF0000E1BF000006C0000011
:103F600020C000002DE9F04385B000244D4B0293A2
:103F7000CDE9004423468046894616464A49012237
:103F8000204606F06BFB494B9B6ADF0640D5484B49
:103F90000094CDE90143204623464349012206F01F
:103FA0005DFB1124414B9B6A1D070AD5414B0293CF
:103FB0000023CDE900333C490122184606F04EFBB0
:103FC00012243A4DAB6A980724D500243A4B36495F
:103FD0000293CDE9004423460122204606F03EFB31
:103FE0006F6BAB6A190659D5344B2F490397CDE94E
:103FF0000143009423460122204606F02FFBB9F12D
:10400000000F03D0AB6A23F08003AB62132403E0FC
:104010001024C7E76FF01507244B9B6ADA070AD50F
:10402000274B02930023CDE900331F490122184694
:1040300006F014FB14241D4B9B6A9B060AD5214BEA
:1040400002930023CDE9003317490122184606F0F8
:1040500005FB1524154B9A6AD50602D49A6A900777
:104060000AD55B68190507D54146384600F082FA43
:1040700010B180F3098802240C4B9A6A920642BF61
:104080005A6A22F400525A629A6A42F0FF029A6215
:1040900020460023337005B0BDE8F0836FF01507AC
:1040A000B4E700BF4BC00000D8B8000000ED00E04E
:1040B00061C00000DBBE000094C00000ACC0000086
:1040C000C2C000004FBF00002DE9F041724B5F6895
:1040D00090B00546C7F30804002383F31188BFF3AB
:1040E0006F8F02F07F40B0F17F4F0CD102F00C00D7
:1040F000082819D1694A6A490093CDE90132184666
:10410000012206F0ABFA002635464FF00008E31E08
:104110008DF81F80092B00F2A680DFE803F00B9AD0
:104120009E96A4A4A4A4A4A2120746BF0D461E46B0
:104130000126EAE75B4B5A49574FCDF80080CDE99D
:10414000018300230122184606F088FA8DF81F80AB
:10415000FC6A14F0020405D0534BCDF80080CDE981
:10416000018306E0FB6A002B0BDA504B0094CDE98B
:10417000014300234A490122184606F06FFA002441
:104180003AE0FB6A5B00FAD5494B45490094CDE91A
:10419000014301222346204606F060FA7B69AA69A2
:1041A00043F480737B61BFF34F8FBFF36F8F7B69E5
:1041B00032F8022C23F480737B61BFF34F8FBFF37F
:1041C0006F8F4DF602739A4209D0BB6ADBB273B3AC
:1041D0000DF11F0201212846FFF7C4FE37E02B68CE
:1041E0000393344B0094CDE90143204623462C49E8
:1041F000012206F033FA2C689DF81F30A3B9202263
:1042000029460DEB020006F087FA0F9B002E3ED0E8
:10421000C3F3080222B96FEA53236FEA43230F93D3
:1042200008A92046FFF702FD10B0BDE8F081BB6A87
:1042300013F47F4F05D00DF11F010120FFF770FD32
:1042400005E0BB6AB3F5803F99D3FFF707FE04464C
:10425000D2E70DF11F020021BDE70DF11F01002083
:10426000ECE7154B79E7154A154B0D4917F4F87F24
:1042700018BF1346103CCDE90334124B02930023C0
:10428000CDE900330122184606F0E8F977E723F478
:10429000FF7323F00103C2E700ED00E00FC100004F
:1042A000D8B800003AC1000051C1000072C100003E
:1042B00080C100009FC10000BBC10000F6C000002B
:1042C000E1C00000DFC10000044B5A6942F0100257
:1042D0005A615A6922F008025A61704700ED00E005
:1042E000EFF30880EFF3098101B57246FFF7ECFEAA
:1042F00001BD00BF002080F31488BFF36F8F0F480B
:1043000080F3088803F032F800200D490860BFF3FD
:104310004F8F00F02BF8202080F3118809484FF4CC
:104320000461401880F30988EFF3148002210843E8
:1043300080F31488BFF36F8F00F0E4F88032002020
:1043400094ED00E0C02400200749D1F8902000231C
:10435000C2F307221846934200DB7047C1F8983039
:10436000C1F8A0000133F6E700ED00E008B572B631
:10437000002383F31388FFF7E7FF144B4FF0FF325E
:10438000C3F88020C3F88420C3F88820C3F88C20A9
:10439000C3F89020C3F89420C3F89820C3F89C2059
:1043A000C3F88021C3F88421C3F88821C3F88C2185
:1043B000C3F89021C3F89421C3F89821C3F89C2135
:1043C00062B6BFF34F8FBFF36F8F08BD00E100E00F
:1043D000084B9B6883420BD1EFF3058343B1064B37
:1043E0005A6842F080525A605A6A22F400425A6275
:1043F00004F03ABED419002000ED00E012498A68AA
:104400004FF030001044EFF3098C80E8F01F2020BB
:1044100080F31288BFF36F8F0C4F4FF000664A692C
:104420008A603E60506F0023536780F3118804B5A3
:10443000104600F0FFF8BDE8044002F1300090E8BB
:10444000F01F8CF309887047D419002004ED00E0B8
:104450001EF0040F0CBFEFF30880EFF309808169B1
:1044600011F8021C0229FFD001B5724606F0EBF8E4
:1044700001BD00BF40B2002807DB044A4109012307
:1044800000F01F00834042F82130704700E100E057
:1044900040B200280CDB4309064900F01F0020331E
:1044A0000122824041F82320BFF34F8FBFF36F8F6B
:1044B000704700BF00E100E0054B420900F01F001B
:1044C00053F82220012303FA00F01040704700BF88
:1044D00000E100E040B20028A8BF00F1604001F117
:1044E0000101B8BF064B4FEA4111ACBF00F5614076
:1044F00000F00F00C9B2B4BF195480F80013704720
:1045000014ED00E00B4A08B50B4B22F07F029A60D5
:10451000BFF34F8FBFF36F8FD3F8882022F4700260
:10452000C3F8882003F0F6FE04F0BEFE00F058F851
:1045300003F034FF0010000000ED00E042F8203CE2
:10454000009B42F81C3C0A49019B42F8183C029B24
:1045500042F8143C21F001014FF0807342F8043C12
:1045600042F8081C0023203A02654367704700BFE9
:10457000F79D0000094A0346906870B113F1160FC9
:10458000406E05D0A0F140029A4205D8834203D282
:10459000814228BF0020704700207047D4190020B6
:1045A00008B5094B0E461546986000F043F82C46B6
:1045B00086F309880020054B9847204600210022F9
:1045C0000023034C204700BFD419002085A600001B
:1045D000F79D0000014B10221A61704700ED00E0CA
:1045E000044800232021C2180133302B82F8001325
:1045F000F9D1704700E100E008B5EFF30583064A02
:10460000103B02EBC30152F8330049688847BDE80C
:104610000840FFF771BB00BF50B60000024B034AD1
:104620000348012100F096B800000420000000209B
:10463000D0B90000426E054B403A1A60044A40214E
:10464000C3E901121846012100F08EB89C0E00202B
:1046500000000B151FB5144AD2F89030C3F307239E
:10466000013B98420FD9114B029300230390CDE9EF
:10467000003318460E49012206F037F86FF0150096
:1046800005B05DF804FBC2F898000B6823F01F0327
:10469000034343F01003C2F89C308B6843F00103DE
:1046A000C2F8A030ECE700BF00ED00E0F6C100006A
:1046B000C8B80000F0B50E4689B01F460446002574
:1046C000B54212DA606838B3BFB1431E18420FD04A
:1046D000134B02930023CDE90033124903950122C5
:1046E000184606F002F86FF01502104609B0F0BD4A
:1046F0001F28EDD921680B42EAD12368059305F004
:10470000E4FFA36805A90343D0B20793FFF7A2FF14
:1047100010F1160FE7D0421C01350C34D0E700BF72
:104720001CC20000C8B80000044B0522C3F8942046
:10473000BFF34F8FBFF36F8F704700BF00ED00E0F6
:10474000BFF35F8F024B0022C3F89420704700BF75
:1047500000ED00E010B5034C01232278FFF7AAFF1B
:10476000207010BDFA1B002008B50B4A00231278F8
:10477000FFF7A0FF10F1160F07D0084A0021D2F86A
:104780009030C3F30723984200DB08BDC2F89800BD
:10479000C2F8A0100130F2E7FA1B002000ED00E0A3
:1047A0002DE9F04357485849D0F890300D68C3F3CD
:1047B00007239D4285B000F2A180FFF7C1FF496841
:1047C0000022954201F10C011AD1504C504F257036
:1047D0006846FEF75FF8DFF83C81DFF83C9106465B
:1047E0000025AE421FD1237846490020D1F8902001
:1047F000C2F3072293427BDBFFF796FF00204CE0D9
:10480000C0F8982051F80C3C23F01F03134343F0E9
:104810001003C0F89C3051F8043C43F00103C0F889
:10482000A0300132CDE7009800EB05114FEA051CDE
:10483000CB683B40B3F5000F44D00AD8B3F5001F56
:104840002ED0B3F5800F34D0B3F5801F10D00135D2
:10485000C7E7B3F1807F3ED0B3F1007FF7D150F8C6
:104860000C3088684A6805F030FF40F4802009E089
:1048700050F80C3088684A6805F027FF40F08850EF
:1048800040F43020039001A92078CDE90123FFF7FF
:10489000E1FE002828DA6FF0150005B0BDE8F083CE
:1048A00050F80C3088684A6805F00FFF40EA0800AD
:1048B000E8E750F80C3088684A6805F006FF40EADF
:1048C0000900DFE750F80C3088684A6805F0FDFE03
:1048D00040F08270D6E750F80C3088684A6805F0DE
:1048E000F4FE40F08870CDE7237801332370AEE703
:1048F000C1F89830C1F8A000013377E74FF0FF30DE
:10490000CBE700BF00ED00E0DCB90000FA1B00209F
:104910000000F0FF0000081100000207014B1860C2
:10492000704700BF380100200E4A0123C2F840350D
:104930004FF080424FF08051C2F87835D1F8300105
:10494000082808D1D1F83411052904D80648415C5B
:1049500009B1C2F838364FF080430122C3F88025F0
:104960000020704700E001404EC2000020B1034B20
:10497000800143F001031847704700BF20B90000D1
:104980004FF08043D3F84036DB072ED54FF010238D
:10499000D3F8043303F00703072B26D1144A01236D
:1049A000C2F80435D2F80034002BFBD04FF01021B0
:1049B000D1F8043323F0070343F00403C1F80433B0
:1049C0000023C2F804350A4AD2F80034002BFBD089
:1049D000BFF34F8F0749084BCA6802F4E0621343E4
:1049E000CB60BFF34F8F00BFFDE70020704700BFD3
:1049F00000E0014000ED00E00400FA05020600F0CE
:104A00007F0312D5082B05D1010700F00F0306D54F
:104A10000E48704710F0780F12D100F00F034C20B1
:104A200000EB43100A4B18447047082B05D10207CE
:104A300000F00F0306D50748704710F0780FF6D046
:104A400000207047044800EB43107047F40F00202B
:104A5000A80E002014110020141000200149024863
:104A600006F090BBD00E00206804002001460148EB
:104A700006F025BBF002002002480022002303F0CC
:104A800005BE00BFF002002013B5124801F014F873
:104A9000114B98421AD1114803F0A2FA0024104891
:104AA00003F0E4FA0F49104800944FF0FF334FF43D
:104AB000806203F077FF0D490B4806F085FB0C4838
:104AC0000C4906F043FB204602B010BD6FF0040015
:104AD000FAE700BF654D00000000AD0B88C4000080
:104AE000FCB90000802000206804002058C20000AB
:104AF000D00E0020C94E000010B50E49BFF35B8FE9
:104B0000002351E8002F012A03D141E8003000289A
:104B1000F7D1BFF35B8F0CD151F8044C1439204608
:104B200005F0CAFA783004D12046BDE8104005F0FF
:104B30009FBA10BDC80E002038B5002464F07F0075
:104B4000C0B2FFF75BFF013405F006FE082CF5D17B
:104B50000E4D0024E0B2FFF751FF036903B9056170
:104B6000013405F0F9FD082C05F14005F2D10848A3
:104B700005F0F2FD074BD3F87C2212B9064AC3F8C0
:104B80007C22064805F0E8FD002038BD38150020DD
:104B9000F40F0020A80E002038110020141100206E
:104BA00010B5054CFFF768FF20B14168204606F0BC
:104BB000B5F9F7E710BD00BF6002002010B586B060
:104BC00019480022002305A903F06AFC40B3002421
:104BD000164B17490293012223462046CDE9004493
:104BE00005F0CDFDFFF7DCFF0F480022002305A9EB
:104BF00003F056FC58B10F4B0D490094CDE9014329
:104C000001222346204605F0BAFD00200AE005985F
:104C1000042340600374FFF729FFFFF71FFFF4E749
:104C20000598406006B010BD6002002063C200001D
:104C3000F0B8000081C2000002281FB512D8104B46
:104C40001C5CFFF7BBFFC0B1002202740472FFF7C7
:104C50000DFF0C4B93F824307BB104B0BDE810403D
:104C6000FFF7FCBE084B029300230390CDE900330D
:104C700006490122184605F082FD04B010BD00BFB0
:104C800085C40000A80E00209DC20000F0B80000FE
:104C9000F0B58778064687B03846FFF7AFFE3B068B
:104CA000F478054622D57CB1032C0BD02A4B029315
:104CB0000023CDE90347CDE90033284901221846F6
:104CC00005F05DFD07B0F0BDFFF778FF0346002853
:104CD000F8D00122AC770274032202739D60FFF7C3
:104CE000C5FE07B0BDE8F040FFF7B8BE54B1012CD7
:104CF000DCD1FFF763FF03460028E3D06C77047430
:104D00000473EBE7FFF75AFF0028DBD0B278144BAF
:104D100012F0800F02F0080111D041B1D3F8A8368B
:104D2000EB6001230374022303738560D7E702F06D
:104D30000F02142101FB0233D3F80836F0E711B15A
:104D4000D3F8A837ECE702F00F02142101FB02337D
:104D5000D3F80837E4E700BFB8C20000F0B800009D
:104D6000007002402DE9F04106468EB01422002169
:104D700009A805F0DCFC3378013B052B21D8DFE8DE
:104D800003F097031414871603238DF82C300024A6
:104D9000FFF714FF0346A0B1047400F10802DDE937
:104DA0000B0182E8030018462BE00423EDE7B778F7
:104DB0003846FFF723FE837A05462BB1013B022BD1
:104DC00060D90EB0BDE8F0813A06F47820D56CB118
:104DD000032CF6D0374A38490093CDE90132CDE9AA
:104DE00003470122184605F0CAFCEAE7FFF7E6FE92
:104DF00003460028E5D00122AC7702740322027337
:104E00009D60FFF733FE0EB0BDE8F041FFF726BE10
:104E100054B1012CDED1FFF7D1FE03460028D0D0DB
:104E20006C7704740473EBE7FFF7C8FE07460028AD
:104E3000C7D04FF00108022380F81080037385600B
:104E4000B07805F10C0105F0E2FC50B11B4B03906A
:104E5000CDE901431849009423464246204605F017
:104E60008EFC174AE968B2F88C328B4206D95B1A7D
:104E7000A2F88C3201F072F93846C2E70023A2F89A
:104E80008C32F9E730460EB0BDE8F041FFF700BFC5
:104E900007A801F03DF99DF81D30052B04D19DF8C0
:104EA0001C3013F0600F8CD0064B0B9301246FE77E
:104EB00002246DE7B8C20000F0B80000E4C20000B0
:104EC000A80E0020141000202DE9F043A84CDFF8B4
:104ED000A49289B08046FFF7CFFD064610B909B00D
:104EE000BDE8F08394F82520337C3AB9002B00F01C
:104EF000A68071689F4806F011F8ECE7042B00F2D9
:104F00008A81DFE813F09C0005001E0149016E0153
:104F100018F8043C5BB9B2689749527A0392974AF1
:104F20000093CDE901321846012205F028FC337BBD
:104F3000B568032B39D8DFE803F0023F6A6F6F6969
:104F400008220021384605F0F2FB8D4B8D48D3F83E
:104F500080243A70D3F884247A70D3F88824D3F864
:104F60008C1442EA01227A80D3F89024D3F8941466
:104F700042EA0122BA80D3F89824D3F89C3442EA5A
:104F800003230822FB803946EA6005F0C5FB2B6845
:104F9000687A0021984797F90030002B08DBFB88DE
:104FA00033B1A4F88C3201F0D9F871684846A2E711
:104FB0000023A4F88C32F8E76B7F002BF5D02B7F11
:104FC000002BF2D0002770486F774FF0FF324FF080
:104FD000FF332F7705F0E2FB6B6905936B68CDE932
:104FE000063705A9687A00F0BDFD684B98420AD0E3
:104FF000674B0390CDE901735F4900973B4601225F
:10500000384605F0BCFB604805F0CAFBCDE72B68CD
:105010000121687A9847C8E7AB7A6BB9EB7F5BB937
:1050200059484FF0FF324FF0FF3305F0B7FB01F066
:105030009BF8554805F0B4FB2B680221E9E7337A69
:10504000042BB2D8DFE803F059032367730000F0A4
:10505000F3FC05460028A8D100F02EFCBFF35B8FBF
:105060004C49012351E8002F002A03D141E80030C8
:105070000028F7D1BFF35B8F97D141F8085C41F866
:10508000105CE0696361143904F09BFF8DE7002533
:1050900065F07F00C0B2FFF7B1FC037A13B1407A2C
:1050A00001F0C6F90135082DF2D194F854311BB145
:1050B00094F8550101F0BCF90025E8B2FFF79EFC19
:1050C000037A13B1407A01F0B3F90135082DF4D118
:1050D00094F874321BB194F8750201F0A9F900201C
:1050E00000F08EFC012384F825302368002B3FF468
:1050F0005CAF00210220984757E7002584F825502F
:1051000001F0FCF8FFF7F8FC2368002B3FF44DAFEB
:1051100029460420EFE7002A3FF447AF00F096FC51
:105120002368002B3FF441AF00210520E3E723680B
:10513000002B3FF43AAF002A3FF437AF002106209E
:10514000D9E708F110054FF0FF334FF0FF32284642
:1051500005F024FBFFF7F0FC284605F021FB58F88A
:10516000283C002B3FF421AF00210120C3E700BF02
:10517000A80E002060020020F0B8000004C3000068
:1051800000700240AC0E0020E00E00200000AD0BCD
:105190002AC30000C80E002094F8743283B10125A0
:1051A00084F8895284F88852FFF708FD034678B9DD
:1051B0001F4A20490090CDE901022A4605F0DFFA96
:1051C00058F8283C002B3FF4F0AE00210A2092E76B
:1051D000194A057405738260FFF748FCFFF73EFC2F
:1051E000EEE7164B02930023CDE90033114901226B
:1051F000184605F0C4FA05F016FE01F07FF800F03D
:1052000051FBFFF7CDFCFFF797FC05F005FE0C48BE
:1052100000F052FCC9E603930A4B02930023CDE948
:10522000003304490122184605F0A9FABDE600BF83
:1052300050C30000F0B800001411002064C3000047
:10524000654D00007BC3000038B5164D95F824402D
:105250002CBB05F1380005F0ABFE204601F03AFA10
:1052600022460121E8612720FFF734F905F0D4FD3B
:10527000FFF762FC044610B9012385F824300A4B7D
:105280001B680BB1FFF7EAFB4FF08043D3F83834CB
:10529000DB0702D50020FFF7CFFC204638BD0024F5
:1052A000FBE700BFA80E0020F0020020074B93F898
:1052B00024203AB193F82530002B14BF00206FF062
:1052C000120070476FF01200704700BFA80E002058
:1052D0001FB50278037902F00F0173B9F1B1144AD6
:1052E0000292CDE9003301221846124905F047FA2F
:1052F0004FF0FF3005B05DF804FB082903D90E4BD1
:1053000002930023EDE7012B08D112F008030CD122
:105310000A4A0093CDE901320222E5E712F00800C3
:105320004FF00003E6D0064AF3E70020E2E700BFB3
:1053300092C30000F0B80000B1C30000D0C3000069
:10534000E6C3000030B5164B93F8243085B0044610
:1053500013B305782846FFF751FBA8B145722379AE
:105360008372638843602078618810F008030FD14E
:105370004A1E0A420CD00B4A0B490093CDE9013278
:105380001846012205F0FBF96FF0150005B030BD9D
:1053900005F038FA0020F9E76FF01200F6E700BFD9
:1053A000A80E002003C40000F0B8000030B5184B70
:1053B00093F8242085B005463AB393F8253023B3FB
:1053C000FFF71CFB044618B96FF0150005B030BD9F
:1053D000827A012A0FD007D9023A012A07D96369D4
:1053E000A3610020E060F1E700F0C4FEF7E7284683
:1053F00000F062FEF3E7074B02930023CDE9003390
:105400000549184605F0BBF9DEE76FF01200DDE74D
:10541000A80E00202BC40000F0B8000038B50E4BD9
:1054200093F82420054682B193F825306BB1FFF73D
:10543000E5FA68B115F008040AD1284600F05EFECE
:10544000284601F02DF8204638BD6FF01200FBE72A
:105450006FF01500F8E700BFA80E002038B50C4B20
:1054600093F8242005460C4662B193F825304BB1E1
:10547000FFF7C4FA48B144B1284600F025FE207079
:10548000002038BD6FF01200FBE76FF01500F8E761
:10549000A80E002070B5134E96F824300446C3B110
:1054A000FFF7ACFA0546B8B1230705D4204600F053
:1054B00025FE204600F0F4FF2B7A83B901232B72DE
:1054C00096F825300BB9002070BD204600F0B0FFE3
:1054D000F9E76FF01200F7E76FF01500F4E76FF0EF
:1054E0007700F1E7A80E00202DE9F043DFF80881EE
:1054F0001E4698F8243089B0074689461546002B89
:1055000076D098F82530002B72D003060FD5FFF720
:1055100075FA044658B1037A7BB9384A384903977B
:10552000CDE9013200930122184605F028F96FF009
:105530001504204609B0BDE8F0834FF0FF334FF06B
:10554000FF3208F1380005F029F9A37F33B108F1E3
:10555000380005F025F96FF00A04EAE7A37A2DB3C5
:10556000A3B30123A3774FF0000805A93846CDE97E
:105570000595CDF81C8000F0F5FA224B984233D007
:1055800084F81E800EB1C6F800801F4B02930023E2
:105590000390CDE900331A490122184605F0EFF8CF
:1055A0006FF00404194805F0FBF8C2E7E27F02B18E
:1055B000E577002BD5D100F0E3FDB842D1D000F063
:1055C000D3FD124805F0ECF80024B2E7B8F80A3031
:1055D000AB42F0D96268B5FBF2F302FB1353002B28
:1055E000E9D10123E377E6E706B135600024D9E786
:1055F0006FF012049DE700BFA80E00204DC400000C
:10560000F0B800000000AD0B6CC40000E00E0020FC
:105610002DE9FF411D46294B174693F8242080466B
:105620000E46002A47D093F82530002B43D010F0C7
:10563000800F01D129B927B16FF0150004B0BDE882
:10564000F0814046FFF7DAF904460028F4D0037AE7
:105650005BB91B4A1B49CDF80C80CDE901320093A0
:105660000122184605F08BF8E6E74FF0FF331648A5
:105670004FF0FF3205F092F8E368BB42984628BF2E
:10568000B8463EB937B905B12B600F4805F088F828
:105690000020D3E7A1694246304605F03DF8A369F2
:1056A0004344A361E368A3EB0803E360002DECD05F
:1056B000C5F80080E9E76FF01200BFE7A80E0020F0
:1056C0004DC40000F0B80000E00E00207FB5244D6E
:1056D00095F824300646002B3FD095F82530002B56
:1056E0003BD003060FD4FFF789F9044658B1037A7B
:1056F0006BB91C4A1C490396CDE901320093012283
:10570000184605F03CF86FF0150004B070BD4FF07E
:10571000FF334FF0FF3205F1380005F03FF8E36842
:10572000B3B9012663692677A361637F83B1FFF76D
:1057300045FA30B905F1380005F032F86FF00B008A
:10574000E3E7067484600673FFF790F9FFF786F9C4
:10575000064805F025F80020D7E76FF01200D4E7DF
:10576000A80E00204DC40000F0B80000E00E00209C
:1057700010B5084B93F824300C462BB1FFF73EF9D7
:1057800028B10460002010BD6FF01200FBE76FF03D
:105790001500F8E7A80E0020014B1860704700BF05
:1057A000A80E002008B5074B93F8243023B1FFF76B
:1057B00025F920B1406808BD6FF01200FBE76FF0DB
:1057C0001500F8E7A80E00204FF08053D3F83021E1
:1057D000082A06D1D3F83431052B04D8034AD05C0B
:1057E0007047002070470120704700BF92C400003E
:1057F000064B10F0800FA3F1D80208BF134600F04B
:105800000F00182202FB0030704700BF5018002024
:10581000EFF31180202383F31288BFF36F8F0A4BBD
:10582000D3F8001C032261B949F27531C3F8001C9A
:10583000C3F8142DC3F8001C80F31188BFF36F8FD9
:105840007047C3F8142DF7E700E00640EFF311802E
:10585000202383F31288BFF36F8F0A4BD3F8001C09
:1058600061B949F27532C3F8002CC3F8141DC3F8AE
:10587000002C80F31188BFF36F8F70470022C3F8AC
:10588000142DF6E700E006404FF08053D3F8303196
:10589000082B02BF024B0022C3F81C2C704700BF2C
:1058A00000700240024A00231360024A13707047DE
:1058B00030190020FF1B002008B54A4B4FF400624E
:1058C000C3F80024FFF780FF08B1FFF7A1FF4FF0F6
:1058D0008053D3F83031082B18D1EFF311802023F7
:1058E00083F31288BFF36F8F3F4BD3F8001CC022A5
:1058F00000296ED149F27531C3F8001CC3F8142C8D
:10590000C3F8001C80F31188BFF36F8F354B012261
:10591000C3F80025D3F800241205FBD54FF400622C
:10592000C3F800244FF08053D3F83031082B17D13F
:10593000EFF31180202383F31288BFF36F8F2A4B7C
:10594000D3F8001C002947D149F27532C3F8002C66
:10595000C3F8141CC3F8002C80F31188BFF36F8FB9
:10596000FFF732FF30B1FFF771FFFFF72DFF08B1EE
:10597000FFF74EFF4FF08053D3F83031082B194B0F
:105980000AD140F2E372C3F800284022C3F8042889
:10599000BFF36F8FBFF34F8F8022C3F81C25012206
:1059A000C3F83025114B40F2FF121A60104B002152
:1059B0001960104B1970FFF767FF0F4B19700F4BF1
:1059C00002221A70FFF700FF50B1BDE80840FFF750
:1059D0003DBFC3F8142C95E70022C3F8142CBBE795
:1059E00008BD00BF0070024000E006402C190020F6
:1059F00028190020FB1B0020FD1B0020FF1B00209E
:105A0000094B002210B51A70084A094B094C0028AE
:105A100008BF1346C4F800332720FEF72BFD0123EF
:105A2000C4F8043510BD00BFFE1B0020FDFFDF01E0
:105A3000FDFFFF0100700240034B1878012894BF5E
:105A400000200120704700BFFF1B002010B54FF061
:105A5000FF324FF0FF33154802F07EFEEFF3118165
:105A6000202383F31288BFF36F8F114B1B7803F051
:105A7000FF0483B10F4BD3F8002412F400720AD153
:105A80000120C3F82C05D3F82C05D3F800048005B9
:105A900002D5C3F82C25002481F31188BFF36F8F42
:105AA000024802F025FE204610BD00BFE0020020A3
:105AB000FE1B002000700240F8B51C4B1C7894BB04
:105AC0001B4A106001221A7040F2FF17264664F04C
:105AD0007F0514F0080FEDB214BF39464021284667
:105AE00004F090FE2846FFF783FE0134092C8675EA
:105AF00006730661EBD1002440F2FF17254614F02F
:105B0000080FE6B214BF39464021304604F07AFE51
:105B10003046FFF76DFE0134092C8575057305616C
:105B2000EDD10448F8BD0448FCE700BFFF1B00208E
:105B3000301900200000AD0B0500AD0B084B10F034
:105B4000800F00F00F0114BFD3F81025D3F81425EF
:105B500001238B40134214BF01200020704700BF77
:105B6000007002402DE9F8430246EFF3118720232D
:105B700083F31288BFF36F8F030703D1184B1B7891
:105B8000834229D1174B184E1C683568104604F023
:105B900031FEE443A4B24FF001092C4309FA00F8A6
:105BA00014EA08041AD11046FFF722FE80F80C9080
:105BB000034607C91C6183E807009C750B4B0C4822
:105BC00045EA080580223560C3F8042187F311886F
:105BD000BFF36F8FBDE8F8830648F7E70648F5E79F
:105BE000FD1B00202C1900202819002000E100E0F6
:105BF0000000AD0B0A00AD0B0B00AD0B10F0080F51
:105C0000074B06D0D3F8C00410F4803F18BF002023
:105C1000704700F00F0000F5947053F820007047B3
:105C2000007002402DE9F74FAB4BAC4ED3F8542136
:105C3000DAB10022C3F85421D3F80413890214D531
:105C40008DF80420D3F82025ADF80620D3F8C03411
:105C5000002B336814BF4FF001224FF480721343BE
:105C600033609F4B01A81B6898479B4BD3F860415A
:105C700034B10022C3F86021D3F86C44C3F86C44FB
:105C8000D3F828214AB10022C3F82821954B18786F
:105C900004F0B0FD012383401C43DFF84C82934F96
:105CA00098F8005098F9009015F0080143D1B9F127
:105CB000000F05F00F032EDA8D4A52F8230020B3AF
:105CC00042F823101422534303F1804303F51C339D
:105CD000D3F80836874A117803F001034B4013705C
:105CE000FFF7D2FD844802F003FD2846FFF780FD50
:105CF000837D032B37D1284604F07CFD012303FA72
:105D000000F03B6823EA00033B60DFF8D4A10125E3
:105D10004FF006095DE0794A52F823000028F4D0DC
:105D200042F823101422534303F1804303F51C333C
:105D3000D3F80837CEE7B9F1000F674B09DBD3F88A
:105D40005021002AE1D00022C3F85021D3F8A8370F
:105D5000C0E7D3F82C21002AD7D00022C3F82C2189
:105D6000D3F8A836B6E7037BDBB9284604F042FD3A
:105D7000012303FA00F03B68B9F1000F23EA0003A6
:105D80003B6001DA882DC0D106238DF80430002352
:105D90008DF80730524B8DF806501B6801A89847C4
:105DA000B3E7002DB1D14C4B0122DA64ADE794FA90
:105DB000A4F03268B0FA80F005FA00F31A430F2815
:105DC000326024EA03043A6840F39C80134200F0F6
:105DD000A980002CEBD1404BD3F800215AB1C3F875
:105DE0000041474B1C703F4B1C70012301933C4BFF
:105DF00001A81B689847384BD3F85821002A2ED0A9
:105E00000022C3F85821D3F80044C3F80044E30546
:105E100008D53B4B01221A7002230193304B01A895
:105E20001B689847A50508D5354B00221A70032337
:105E300001932B4B01A81B68984760050FD5304B89
:105E40001A7862B100221A70234B0122C3F8082588
:105E50009A6504230193224B01A81B6898471E4BA7
:105E6000D3F85C3103B3244B9B681BB998F800301E
:105E7000590619D0184B0022C3F85C21D3F880349E
:105E8000184A23F07F0313703B6823F001133B6033
:105E9000336823F4803343F0010333600523019317
:105EA0000F4B01A81B6898473A6833681A4200F004
:105EB000EB8011480022002302F04EFC002840F045
:105EC000E380054BD3F82C35002B7BD00A4803B078
:105ED000BDE8F04F02F00CBC007002402C1900200D
:105EE00030190020FD1B0020FC1B00202819002079
:105EF00008710240FB1B0020E002002030710240CC
:105F0000FE1B002013407FF464AF60F07F018DF82A
:105F100004908DF806108DF80730DAF8003001A8EB
:105F2000984756E7A0F110018DF804908DF80610FF
:105F30008DF80750F1E749F080052846FFF758FC37
:105F40004368B0F814A001689A4528BF9A4601F04A
:105F50006043B3F1005F044604D05448524604F055
:105F6000DBFB52492268636852442260A268A3EBBB
:105F70000A03D20768B2636053D5BAF1000F52D159
:105F8000002323734FE011464FF0000A604545D1CE
:105F9000003B18BF0123002A42D0504540D90123BD
:105FA00003FA09F32BEA03033B6006238DF8043060
:105FB0003F4B8DF8065002221B68A2758DF8072012
:105FC00001A89847D7F800B033681BEA03093FF4EB
:105FD0007DAF19F0012314BF93FAA3F999FAA9F937
:105FE000B9FA89F9B9F10F0FA5D9A9F11005EDB2E8
:105FF0002846FFF7FDFB04462846FFF7FFFD6368D0
:10600000B4F814C022689842BDD81B1A00EB020EE7
:1060100011466360C4F800E08246B7E70023BAE7A0
:1060200068B2002BACD04FF08053D3F83031082B3E
:1060300002BF204B8222C3F81C2C336888F8005022
:10604000012202FA09F923EA09033360236915F0F2
:10605000080F53442361174B19D1002805F00F0591
:106060004FF0140000FB0530A9BF0A3503EB850390
:10607000C0F80017C0F804A7AFBF43F82520C0F848
:106080000016C0F804A65A6003B0BDE8F08F0028DF
:10609000B5BFC3F8A016C3F8A017C3F8A4A6C3F8E9
:1060A000A4A7B4BF5A629A64EEE700BF3817002075
:1060B0003019002000700240024B40F48070C3F899
:1060C0001805704700700240030713D400F00F0357
:1060D00010F0800F084A0BBF03F5887303F5847333
:1060E00002EB830252F8230008BF5068003818BF43
:1060F000012070470020704700700240034BC3F836
:106100000C0540F48070C3F80C0570470070024025
:1061100010B508220021044604F009FB0E4BD3F809
:1061200080242270D3F884246270D3F88824D3F8B2
:106130008C1442EA01226280D3F89024D3F894149C
:1061400042EA0122A280D3F89824D3F89C3442EA90
:106150000323E38010BD00BF00700240014B012209
:10616000DA64704700700240014B01221A657047E3
:1061700000700240014B01225A65704700700240D6
:10618000014B1878704700BFFD1B002010B5024678
:10619000EFF31184202383F31288BFF36F8F04F091
:1061A00029FB0B49012303FA00F00B6823EA0003E3
:1061B0000B6012F0080101BF02F00F02054B02F55F
:1061C000947243F8221084F31188BFF36F8F10BDCF
:1061D0002C19002000700240F7B50146EFF311853D
:1061E000202383F31288BFF36F8FFFF701FB06466E
:1061F000084604F0FFFA012211F0800F02FA00F2C3
:106200002D4818D1036832EA03040AD00846FFF784
:10621000BDFF0323B37585F31188BFF36F8F03B000
:10622000F0BD2649347323EA020303600B6823EAB6
:1062300002030B60EDE70B0715D48029204B2FD00C
:1062400001F00F0404F2DA346400C3F80048D3F814
:106250000448D3F80478E4B244F002043C43C3F8A1
:106260000448D3F80438154F04683B6864EA030C0B
:106270001CEA020FCFD013433B6000233373032388
:10628000B3758DF807300F4B8DF8061024EA020421
:10629000062204601B688DF8042001A89847BAE71D
:1062A00040F2B474C3F80048D3F80448D3F8047833
:1062B000E4B244F00404D1E7281900202C1900208E
:1062C000007002403019002038B50446094D4FF0E7
:1062D000FF324FF0FF33284602F03EFA2046FFF728
:1062E0007BFF284602F004FA034B8022C3F8042106
:1062F00038BD00BFE002002000E100E0F8B54FF03B
:10630000FF324FF0FF332B4802F026FA2A4B80224F
:10631000C3F884212720FEF7CFF898B1274E284BE9
:1063200034681B68240C24041C43012764BB254DDE
:1063300040F2FF1333602720C5F80445FEF7A8F8A4
:10634000C5F80043204A13788BB11E4B0021C3F8D7
:1063500008110121C3F80026C3F804165960D3F8C8
:1063600008110029FBD00021C3F808111170154B4A
:106370000022C3F80025FFF787FA0E4802F0B8F9AB
:10638000124B01221A70F8BD94FAA4F5B5FA85F5FE
:106390000F2D2846C6BFA5F11000C0B240F0800006
:1063A000030701D4FFF718FF07FA05F524EA0504EF
:1063B000BCE700BFE002002000E100E02C19002053
:1063C0002819002000700240FB1B0020FF1B00204A
:1063D00010B504464FF0FF324FF0FF33114802F082
:1063E000BBF92046FFF7F8FE04F00F0201239340AB
:1063F0000D4A14F0800F14BFD2F81015D2F81415FE
:106400006FEA030315BF0B400B40C2F81035C2F80A
:106410001435044802F06CF9044B8022C3F80421BF
:1064200010BD00BFE00200200070024000E100E06B
:1064300070B50446FFF782FB68B904F00F0201252E
:1064400014F0800F144B05FA02F205D0D3F81015A2
:106450000A43C3F8102570BDD3F814150A43C3F8D6
:106460001425631E062BF6D8EFF31186202383F341
:106470001288BFF36F8F2046FFF788FE204604F096
:10648000B9F9064A1368854023EA0503136086F3C9
:106490001188BFF36F8FDEE70070024028190020DB
:1064A000030610B5044605D4FFF70EFE10B12046D2
:1064B000FFF76CFE014BC3F8184510BD0070024099
:1064C000084B70B5C31A0D4607499B100446594343
:1064D0000648402204F0BAF92B4601462046BDE8A2
:1064E0007040184748190020B76DDBB6ECB50000C6
:1064F00073B50C4C0C4A4023041B00930D460B460D
:106500000A49A41061430646094804F0CAF9011E6D
:1065100005DA30462B4602B0BDE87040184702B09D
:1065200070BD00BF481900200BA90000B76DDBB695
:10653000ECB5000010B5EFF31184202383F312882B
:10654000BFF36F8F074A136823F00201DB07116066
:1065500002D4012004F0D2FB84F31188BFF36F8FC3
:1065600010BD00BF98190020002270B5012104461B
:106570001046FDF7AFFF0F4801F088F80E4B984228
:1065800015D101F093F826690C49304603F006FD59
:1065900000280BDB012535642469084904F11C003F
:1065A00003F0FCFC002801DBE564002070BD6FF007
:1065B0000400FBE7B96600000000AD0B00BA000064
:1065C0001FB500220123CDE90223094ACDF800D0EE
:1065D0006B46CDF804D004F091F9002805DB4FF4A8
:1065E00080420023684602F0B7F805B05DF804FB6E
:1065F00029A9000030B4104B0C2202FB00330146E5
:106600000020D3E90E529863EFF31180202484F325
:106610001288BFF36F8F1C6C04F0C00444F00204B6
:106620001C6480F31188BFF36F8F1DB12B460348A4
:1066300030BC184730BC704748190020ECB500004A
:1066400010B4EFF31182202383F31288BFF36F8F0E
:106650001748016841F002040460C80707D482F3B8
:106660001188BFF36F8F012010BC01F037B84FF0D5
:106670008041D1F80C04D1F80C14C907EFD5EFF321
:10668000118083F31288BFF36F8F0A490B6C03F0FC
:10669000C00343F002030B6480F31188BFF36F8FD4
:1066A00082F31188BFF36F8F002010BCFFF7A2BFE9
:1066B000981900204819002010B1012804D0704713
:1066C000034B1B6C5B0701D1FFF794BF704700BF02
:1066D00048190020024AC3B21C2003FB0020704767
:1066E000481900202DE9F0413849BFF35B8F074678
:1066F000012251E8003F41E800200028F9D1BFF312
:106700005B8F33B9324933484B60CB608A6003F00A
:1067100058FC7B1E012B2BD8012F07D14FF0804353
:10672000D3F81C3403F00303012B21D004F046FD01
:106730000546F8B9284B1B78E3B14FF0804302229D
:10674000C3F808230646DFF894804FF08044D4F85D
:106750001824D4F81834D20315D503F00303012B01
:1067600001D0012F0FD155B386F31188BFF36F8F7E
:10677000BDE8F081EFF31186202383F31288BFF385
:106780006F8F0125DFE7ADB1304603F08FFFD4F8FE
:106790001835002BDBD1D4F80421002AD7D0C4F857
:1067A0000431D4F804310123C4F81835C8F8803115
:1067B000A360CCE70021212004F0A2FDE7E74FF021
:1067C00080430222C3F80423D2E700BF441900200B
:1067D0003419002064190020241C002000E100E08E
:1067E00008B5074804F032FB38B10648FEF796F8C2
:1067F0000448FBF761F8002008BD6FF01200FBE7CA
:1068000028B60000096800000A2838B5074D04467C
:1068100004D1AB680D215B6828469847AB680348F4
:106820005B68E1B29847204638BD00BF28B600003B
:10683000F0B54068057B01F01F0444EA4514056982
:1068400087B0002D64D0B2F5001F00F1100506D10D
:106850002146284604F0D2FA002007B0F0BD01AE70
:106860000027B2F5800F0197776039D1B3F1007F2F
:1068700014BF052304238DF804300023CDE90463FD
:106880000393836823FA01F111F001011AD1B2F1E7
:10689000A07F17D104F01F03620903F5E0732AD02B
:1068A000012A3BD11F4A52F82330DB070AD40DF1ED
:1068B000030632462146284601F0F8F91A4B984261
:1068C0001CD0029603AA2146284601F0B1F8174BC6
:1068D000984220D101222146284601F04BFABBE71D
:1068E000B3F1C06F05D0B3F1007F14BF01230223C1
:1068F000C1E70323BFE74FF0A042D4E73146284663
:1069000001F032FA094B9842DBD06FF00B00A4E79C
:106910006FF08500A1E76FF015009EE751F8233076
:10692000FFDE00BF000300500400AD0B0000AD0B04
:1069300038B545682B69B3B11035284601F004FA23
:10694000044680B90146284601F0CAF9084B98422E
:106950000BD108492246284601F0A2F9224605211A
:106960000620FDF7B7FD002038BD6FF00400FBE7FF
:106970000000AD0B79690000420970B5034602D0F2
:10698000012A17D070BD0D4E326951680029F9D027
:1069900003F01F0301250C689D400029F2D08A688E
:1069A0002A4002D04B68304698472CB123682146D4
:1069B0001C46F2E7024EE7E72346F8E714B600006C
:1069C00000B600002DE9F043466840F20635D006D7
:1069D000337B87B002EA050554BFC2F340100320A1
:1069E00001F01F07B5F5837F144647EA43178DF87A
:1069F000030045D00FD8062D18D007D8B5B1022D09
:106A000040D06FF0150007B0BDE8F083B5F5807F8A
:106A1000F7D101250AE040F20222954234D0B5F5C3
:106A2000407F33D0B5F5007FEBD10225012322034F
:106A300003FA01F12CD57368C3F80815326982BBDB
:106A400007F01F037F0929D0012F77D13E4A02EBBF
:106A5000830284F48033D2F80017C3F30043C4F3F5
:106A6000404444EA430421F4E16144EA800421F013
:106A7000070144EA05230B43C2F800370020C2E7B0
:106A80000725D3E70425D1E70525CFE70325CDE783
:106A9000630344BF7368C3F80C15CFE74FF0A042FF
:106AA000D5E710360DF102023946304601F0FEF806
:106AB00014F4403F80460CD13946304604F09CF92E
:106AC000224B9845DAD19DF80210304601F046F984
:106AD000D4E701AB4FF0000903AA39463046CDE9AF
